:100000000C9422020C947E040C9469020C946902F4
:100010000C9469020C9469020C9469020C946902B4
:100020000C9469020C9469020C94FA1F0C94CC2075
:100030000C9451160C9469020C9469020C94690298
:100040000C9469020C9469020C9469020C94690284
:100050000C9469020C94B9160C9469020C94690210
:100060000C9469020C9469020C9469020C94690264
:100070000C9469020C9469020C9469020C94690254
:100080000C9469020C9469020C9469020C94690244
:100090000C9469020C9469020C9469020C94690234
:1000A0000C9469020C9469020C946902FB05FD052D
:1000B0000806FF0501060306050607060A060C06E4
:1000C0000E061906100612061406160618061B065A
:1000D000280C280C5A0C5A0C980CB60C1C0E1C0E32
:1000E000F80C1C0E9B0D9B0D0C0E1C0E1C0E150E01
:1000F000A80DA80DA80DA80DA80DA80DA80DA80D58
:10010000A80DA80DA80DA80DA80DA80DA80DA80D47
:10011000B90DC70DCE0DD50DDF0DAD0EAD0EBF0E59
:10012000BF0EB60EBF0EBF0EBF0EAD0EAD0EBB0E98
:10013000BF0EBF0EBB0E392160215822602158220C
:10014000AC21CF2158222622352229002B00140071
:100150001A000800150017004C00E4000400160007
:10016000070009000A000251E1001D001B00060003
:1001700019000500E300E00035003100E200015104
:100180002C002A002F00130012000C0018001C0085
:100190002800300033000F000E000D000B00E500BA
:1001A0005200380037003600100011004F00510097
:1001B00050002E002D0034002C00005C1E001F009B
:1001C0002000210022002F0001003A0000008B00D7
:1001D0008A000000000001003B003C003D003E00A2
:1001E0003F002F0201000100010001000100010099
:1001F0000100010027002600250024002300300014
:100200000100000000004F00520051005000450066
:100210004400430042004100400030020000000062
:100220000000010001000100010001001E021F0288
:100230002002210222022F00010000000000000025
:100240000000000026020100000000000000000085
:1002500000002F0201000100010001000100010067
:100260000100010027022602250224022302300099
:100270000100000000000000000000002702010053
:100280000100000000000000000030020100010039
:100290000100010001000100010004033000000022
:1002A0000E034500720067006F003400320000004A
:1002B0001203420069006100630063006F003400B4
:1002C000320000000403090409026D00040100A0CB
:1002D000FA090400000103010100092111010001D4
:1002E0002240000705810308000A090401000103F8
:1002F000010200092111010001224D0007058203BE
:1003000008000A090402000103000000092111018C
:1003100000012236000705830308000A09040300D0
:100320000103000000092111010001223900070525
:100330008403200001120110010000000842BC42A9
:100340000000010102030105010906A101050719C9
:10035000E029E715002501950875018102050819B6
:100360000129059505750191029501750391010516
:1003700007190029F71500250195F875018102C0BC
:1003800005010980A10185021601002603001A81DA
:10039000002A8300751095018100C0050C0901A198
:1003A000018503160100269C021A01002A9C027591
:1003B0001095018100C005010902A1010901A100F8
:1003C0000509190129051500250195057501810209
:1003D0009501750381010501093009311581257FDA
:1003E00095027508810609381581257F95017508E4
:1003F0008106050C0A38021581257F950175088153
:1004000006C0C005010906A101050719E029E71585
:100410000025019508750181029501750881010586
:10042000081901290595057501910295017503913A
:10043000010507190029FF150026FF00950675081C
:100440008100C00011241FBECFEFDAE0DEBFCDBFB8
:1004500004B603FE27C08091400290914102A09112
:100460004202B09143028730904BA740B04BD1F489
:1004700010924002109241021092420210924302E6
:1004800014BE84B7877F84BF0FB6F894A895809177
:100490006000886180936000109260000FBEE0E011
:1004A000F8E3099511E0A0E0B1E0ECEFF5E402C05B
:1004B00005900D92A234B107D9F722E0A2E4B1E091
:1004C00001C01D92A034B207E1F70E94271D0C94D1
:1004D000FC220C94000008950C946B020C946B02A7
:1004E000CF93DF938091FB01836088608093FB0151
:1004F000ABE1B1E04FE151E061E070E08D91E82FB8
:10050000E295EF70F0E021A18F70EB0102C0CC0FFB
:10051000DD1F8A95E2F7CE019C2F9095922391A33F
:1005200092A1892B82A34A175B0741F7A4E1B1E0AE
:100530004BE151E061E070E08D91E82FE295EF70C2
:10054000F0E021A18F70EB0102C0CC0FDD1F8A9576
:10055000E2F7CE019C2F9095922391A392A1892B33
:1005600082A34A175B0741F7559A209AE2E4F1E02B
:10057000ABE4B1E08AE491E011921D928E179F07DF
:10058000D9F7DF91CF910C943A052F923F924F9279
:100590005F926F927F928F929F92AF92BF92CF9213
:1005A000DF92EF92FF920F931F93CF93DF9300D0D0
:1005B00000D0CDB7DEB780910001811103C004E007
:1005C00010E002C000E010E08BE1C82E81E0D82EE0
:1005D0009801255B3E4F79019FE1892E91E0992E8C
:1005E0003C832B83AA24A394B12C772473946B812E
:1005F0007C81DB015C901C92F60181916F01E82FF8
:10060000E295EF70F0E021A18F70A50102C0440FC8
:10061000551F8A95E2F7CA01242B21A322A1642E3B
:100620006094262122A350EA5A95F1F7A4E1B1E0A3
:10063000BA83A98320E030E0A981BA813D90BA83D2
:10064000A983432D42954F7050E0DA0190962C908B
:10065000AB81BC814C90432D4F70D50102C0AA0FD5
:10066000BB1F4A95E2F7AD01422141F45A2D022EFB
:1006700001C0550F0A94EAF7452F01C040E0442914
:10068000AB81BC814C932F5F3F4F27303105A1F6E2
:1006900091A1692261A292A1892B82A31196BC83A8
:1006A000AB83FB018081581641F0709253010E9488
:1006B000831690935501809354018C149D0409F086
:1006C00096CF809153018823A9F080915401909195
:1006D00055010E948F16069768F0F801EE5BFE4FF9
:1006E00080E0D7019D917D0191938F5F8430C9F7A0
:1006F0001092530181E00F900F900F900F90DF91B7
:10070000CF911F910F91FF90EF90DF90CF90BF900E
:10071000AF909F908F907F906F905F904F903F90A1
:100720002F900895CF93DF9380910001811103C032
:10073000C0E0D0E002C0C4E0D0E00E94E304009733
:1007400079F4CE5BDE4F20E030E0F901E85AFE4F4D
:10075000408149932F5F3F4F24303105B1F702C0EC
:1007600081E090E0DF91CF910895CF930E94C50280
:10077000C82F0E949203892BC1F05D9880914A0195
:100780008F5F80934A01863098F08091000181113B
:1007900003C0E0E0F0E002C0E4E0F0E0EE5BFE4F1A
:1007A000108211821282138203C05D9A10924A0154
:1007B0000E9446058C2FCF9108950E94C50280911A
:1007C0000001811103C0E4E0F0E002C0E0E0F0E0ED
:1007D000EE5BFE4F80E090E02191DC01A85ABE4F15
:1007E0002C93019684309105B9F70895E82FF0E035
:1007F000EE5BFE4F808108950895E8EDF0E0808182
:10080000806180838AE18A95F1F700C08091D900E8
:10081000817008950E94FD03809300010E94FD03F2
:10082000882319F00E94710404C00E947A160E9465
:100830007504789408950E9470020E94DD03FDCF34
:100840000E940A040E94FD03811102C00E941B0441
:100850000895509A08955098589A0895589A08956E
:100860000E942B04489BFECF80E88A95F1F70895FB
:100870000E942B0498E080E029B1880F2170822B20
:1008800020E82A95F1F725E02A95F1F7000091502C
:1008900099F708950F931F93CF93082F0E9429046F
:1008A000C8E010E0C15088F0C8010C2E02C0959538
:1008B00087950A94E2F780FF03C00E942E0401C0CE
:1008C000589880E88A95F1F7EDCFCF911F910F915D
:1008D00008950E942904589880E88A95F1F70C94AD
:1008E0002E040E9429040C942E040E942B04E89AE2
:1008F000E9E6F0E080818C7F808308951F920F925B
:100900000FB60F921124EF92FF921F932F933F93F4
:100910004F935F936F937F938F939F93AF93BF9307
:10092000CF93DF93EF93FF930E946904C0E0D0E080
:1009300010E0CE01885A9E4F7C01FC0180810E940C
:100940004A040E946904F7018081180F2196C4307F
:10095000D10579F7812F0E944A040E946904F0E8CA
:10096000FA95F1F780E48A95F1F70E9438048093B4
:1009700057010E946904C09157010E943804D82F82
:100980000E9469040E942B0480915601DC1711F02B
:10099000816001C08E7F80935601FF91EF91DF91BE
:1009A000CF91BF91AF919F918F917F916F915F9107
:1009B0004F913F912F911F91FF90EF900F900FBE9D
:1009C0000F901F901895EF92FF921F93CF93DF9394
:1009D000F8940E942904589825E02A95F1F7000020
:1009E0000E942B040E942E0430E83A95F1F74899B2
:1009F00030C00E943004C0E0D0E010E00E94380413
:100A0000FE01E85AFE4F7F0180830E943004F70107
:100A10008081180F2196C430D10581F70E943804D7
:100A2000C82F0E9430041C1314C0809157010E94EB
:100A30004A040E943004809157010E944A040E9497
:100A400030040E9429040E942E04789480E090E0F3
:100A500003C0789481E090E0DF91CF911F91FF90E7
:100A6000EF9008950C946C0281E0089581E0089560
:100A70000C9436050E940515811106C00E941015C0
:100A8000811102C00E947D150C9432050C946E02F7
:100A900008950C9448050C94490508950E94990EF8
:100AA0000E944D052FEF84E39CE021508040904050
:100AB000E1F700C000000C94DF16FF920F931F9324
:100AC000CF93DF938C01FC01C081D18180917201B1
:100AD000811113C08281882349F0CE010E94F8134E
:100AE000F82E682FCE010E94A11304C0CE010E94EF
:100AF000CC13F82EBE018F2D04C0CE010E94F81336
:100B0000BE010E94CF06EC01B8010E94380588237F
:100B100009F43AC1C631FCE5DF0709F401C170F4FC
:100B2000C130ECE5DE0751F120F4C115DC45F1F0F0
:100B30001EC1C531ECE5DE07E0F119C1C83DFCE599
:100B4000DF0709F4D2C050F4C63DECE5DE0709F436
:100B500082C0C73DDC4509F4A1C009C1CB3D8CE58D
:100B6000D807B9F0CC3DDC45D9F001C1F80182814C
:100B7000882309F409C10E944E0506C1F80182814B
:100B8000882309F401C18091FB0181608093FB01FE
:100B9000FBC0F8018281882309F4F6C080E006C01A
:100BA000F8018281882309F4EFC082E00E94C11D10
:100BB000EBC0F8018281882309F4DEC00E9405158C
:100BC000811102C00E947D150E94221590E0909331
:100BD000320280933102FE01E350FC45E231F1051F
:100BE00030F4EA5AFF4F809131020C94A022809198
:100BF0003102816027C0826025C0846023C080618B
:100C000021C080621FC080641DC080681BC08460DA
:100C1000886018C08E7F16C08D7F14C08B7F12C075
:100C20008F7E10C08F7D0EC08F7B0CC08F770AC067
:100C30008B7F877F07C087FB222720F991E09227CF
:100C400090FB87F980933102809131020E94261532
:100C50000E94990E99C0F8018281882351F0109268
:100C600061010E94831690935E0180935D0182E092
:100C700022C08091610181110FC080915D0190912E
:100C80005E010E948F168436910530F486E20E9440
:100C9000730A86E20E947D0B82E024C0F801828103
:100CA000882361F0109262010E9483169093600184
:100CB00080935F0180E20E94E50B66C08091620133
:100CC00081110FC080915F01909160010E948F1689
:100CD0008436910530F487E20E94730A87E20E940D
:100CE0007D0B80E20E94EC0B4FC0F80182818111E4
:100CF000D9CF809162018111F4CF80915F019091F1
:100D000060010E948F168436910558F780E20E9498
:100D1000EC0B88E20E94730A88E20E947D0B34C0CB
:100D20000E94C914982FF80182812091010130910D
:100D30000201882379F09A7A81E009F480E08093B7
:100D40005C01911102C069E201C065E3C9010E9422
:100D5000DC150AC080915C01811102C069E201C00A
:100D600065E3C9010E94E7150E9496140DC081E059
:100D70008093610180936201C801DF91CF911F913F
:100D80000F91FF900C94340580E0DF91CF911F917B
:100D90000F91FF90089580E090E00895089528E372
:100DA000829FC0011124FC0127E0729FE00DF11D1C
:100DB0001124E60FF11DEE0FFF1FE65BFE4F85913C
:100DC00094910895880F991FFC01E656FD4F859177
:100DD00094910895CF93DF930E94CF060E948E08CE
:100DE000EC018115904508F041C0C11580E4D80799
:100DF00008F01CC1C83ED10510F5C03ED10508F071
:100E000089C1C83AD10578F4C53AD10508F09EC029
:100E1000C130D10509F47EC108F435C1C430D10513
:100E200008F078C130C1CD3BD10508F49AC0C03C70
:100E3000D10508F428C1CE01805C9109E9C0C11533
:100E400090E2D90758F4C11521E0D20708F062C139
:100E5000C03FD10508F417C1D0655CC1C11580E35E
:100E6000D80708F0D9C0CE019F70D2C0C11595E552
:100E7000D90708F044C0C11524E5D20708F0EDC039
:100E8000C11582E5D80710F5C11591E5D90708F01D
:100E9000D0C0CE0174E0969587957A95E1F7282F1A
:100EA00023703C2F337081E090E002C0880F991FBF
:100EB0003A95E2F79C68922BCF70C695C69520E2D2
:100EC000C29FE0011124C82BD92B24C19E0123709D
:100ED00033278C2F86958695C115D34508F0AEC073
:100EE000C1E0D0E002C0CC0FDD1F2A95E2F720E27E
:100EF000829FC0011124C82BD92BDC680BC1C115FE
:100F000029E5D20780F4C11588E5D80708F0AAC002
:100F1000C11596E5D90708F0B6C0CF71DD27DC2FE3
:100F2000CC27D062F7C0CE01C1152AE5D20708F45C
:100F30009EC090568115904208F0A5C08D2F8F71EC
:100F40000E940A09DD27D0628F719BC0C53AD10586
:100F500009F49CC0C63AD10509F09BC0C2E8D0E4B0
:100F6000D9C0C83AD10509F497C0C93AD10509F4E6
:100F700096C0CA3AD10509F495C0CB3AD10509F417
:100F800094C0CC3AD10509F493C0CB3BD10509F408
:100F900092C0CC3BD10509F491C0CD3AD10509F4FA
:100FA00090C0C03BD10509F48FC0CE3AD10509F4F9
:100FB0008EC0CF3AD10509F48DC0C13BD10509F4EB
:100FC0008CC0C23BD10509F48BC0C33BD10509F4E9
:100FD0008AC0C43BD10509F489C0C53BD10509F4D9
:100FE00088C0C63BD10509F487C0C73BD10509F4C9
:100FF00086C0C83BD10509F485C0C93BD10509F4B9
:1010000084C0CA3BD10509F483C0C0E0D4E482C0E7
:101010000E94E206EC017EC0CE019927D3FF03C0F7
:10102000EC01D86C77C0EC01D06C74C0DF70D06A72
:1010300071C0DC2FCC27C16FD06A6CC0C1E0D0E09A
:1010400002C0CC0FDD1F2A95E2F720E2829FC0018B
:101050001124C82BD92BDA685DC0DC2FCC27C46FD4
:10106000D06A58C0DC2FCC27C06FD06A53C024E0B0
:10107000969587952A95E1F78F70CF70C06ED0E076
:10108000D06AD82B47C0C0E0D0E044C0C1E8D0E46B
:1010900041C0C3E8D0E43EC0C2EED4E43BC0C9EED8
:1010A000D4E438C0CAEED4E435C0C5EBD4E432C0D1
:1010B000C6EBD4E42FC0C3EBD4E42CC0C4EBD4E41F
:1010C00029C0C7EBD4E426C0CCECD4E423C0CDECDB
:1010D000D4E420C0C3E8D5E41DC0CAE8D5E41AC0F2
:1010E000C2E9D5E417C0C4E9D5E414C0C1E2D6E42E
:1010F00011C0C3E2D6E40EC0C4E2D6E40BC0C5E220
:10110000D6E408C0C6E2D6E405C0C7E2D6E402C011
:10111000CAE2D6E4CE01DF91CF91089582389105DD
:1011200049F1B0F48133910509F459C048F489328A
:10113000910509F44FC08A32910509F455C008950C
:101140008533910509F441C08933910599F00895DB
:10115000833E910531F138F4803E910591F0823E55
:101160009105A9F00895863E910501F1873E91050C
:1011700039F108952091310220FD3BC021FD39C095
:1011800008958091310280FF34C089E341C080918D
:10119000310282FF30C08091310284FD2EC083EE87
:1011A00037C08091310282FD26C0F5CF8091310297
:1011B00083FF25C08091310284FD1FC087EE28C0C7
:1011C0008091310283FD1BC0F5CF8091310285FDF6
:1011D00018C019C08091310285FD15C012C08091E0
:1011E000310286FD12C013C08091310286FD0FC00E
:1011F0000CC080EE0DC082EE0BC080E009C086EE10
:1012000007C089E205C085E303C08AE201C081E32B
:1012100090E008959091310292FF0DC0282F28711F
:10122000283019F4877F846006C0282F2471243069
:1012300011F48B7F886093FF0DC0282F287128310F
:1012400019F4877E846106C0282F2471243111F49B
:101250008B7E886194FD877E0895909368018093CA
:1012600067010895E0916701F0916801309721F0DE
:101270000190F081E02D099480E00895E0916701EC
:10128000F0916801309721F00280F381E02D0994FC
:101290000895E0916701F0916801309721F0048092
:1012A000F581E02D09940895209165013091660142
:1012B0002817390771F09093660180936501E091DA
:1012C0006701F0916801309721F00680F781E02DE9
:1012D000099408952091630130916401281739071A
:1012E00071F09093640180936301E0916701F09144
:1012F0006801309721F00084F185E02D099408956C
:101300000C94200481E008950E947A1685B78068C5
:1013100085BF85B7806885BF0E9470020E94031751
:10132000E1E3F2E08081806880830895BF92CF92EC
:10133000DF92EF92FF920F931F93CF93DF93CDB77E
:10134000DEB72A970FB6F894DEBF0FBECDBF0E945E
:10135000B5030E948209811111C08FEF89838A83AE
:101360001B820E9483168160782F9D838C83498124
:101370005A816B818D810E943F0A54C08AE6C82E33
:1013800081E0D82E00E010E0B02E802F0E94F603FE
:10139000E82EF60121916F01F82EF22631F40F5F4D
:1013A0001F4F0830110581F7D8CF8091FB0181FDD7
:1013B0000E94FC0380E090E02F2D30E0482FB9011F
:1013C000082E02C0759567950A94E2F760FF25C064
:1013D0008E83BF8281E090E06C0102C0CC0CDD1CEA
:1013E0004A95E2F72E2D30E02C213D21232B09F4E4
:1013F00080E088870E9483168160782F9A8789878A
:101400004E815F8168858A850E943F0AF801E6590E
:10141000FE4F80818C25808305C001968730910521
:1014200069F6BDCF0E9496180E9432099091690119
:101430008917A9F00E943209809369012A960FB694
:10144000F894DEBF0FBECDBFDF91CF911F910F91FA
:10145000FF90EF90DF90CF90BF900C944B052A96B1
:101460000FB6F894DEBF0FBECDBFDF91CF911F91B5
:101470000F91FF90EF90DF90CF90BF900895CF93A2
:10148000DF93CDB7DEB72B970FB6F894DEBF0FBE54
:10149000CDBF4F83588769877A878B87DE01119686
:1014A00086E0FD0111928A95E9F785E0FE01379605
:1014B00001900D928A95E1F749815A816B817C8177
:1014C0008D819E810E9466112B960FB6F894DEBF27
:1014D0000FBECDBFDF91CF910895FC018081918136
:1014E0000E9437140895CF93882309F404C1C82FAC
:1014F0008238C1F40E94320981FDFDC069E3809108
:101500000101909102010E94DC150E9496142FEFB8
:1015100081EE94E0215080409040E1F700C000004F
:1015200069E319C0833801F50E94320980FDE3C0E8
:1015300063E580910101909102010E94DC150E94F7
:1015400096142FEF81EE94E0215080409040E1F717
:1015500000C0000063E580910101909102010E94AA
:10156000E715CF910C9496148438C1F40E94320987
:1015700082FDC1C067E480910101909102010E9447
:10158000DC150E9496142FEF81EE94E021508040EC
:101590009040E1F700C0000067E4DDCF8CEF8C0FD6
:1015A000813A68F48C2F0E94C31A8111A4C06C2F59
:1015B00080910101909102010E94DC15D2CF80E25E
:1015C0008C0F883048F4C77081E001C0880FCA953D
:1015D000EAF70E94CC14C5CF8BE58C0F833078F4EA
:1015E000C53A29F0C63A31F083E890E005C081E8B9
:1015F00090E002C082E890E0CF910C94540988E515
:101600008C0F853108F06FC0C83A61F1C93A69F1B1
:10161000CA3A71F1CB3A79F1CC3A81F1CB3B89F1FD
:10162000CC3B91F1CD3A99F1C03BA1F1CE3AA9F171
:10163000CF3AB1F1C13BB9F1C23BC1F1C33BC9F1F2
:10164000C43BD1F1C53BD9F1C63BE1F1C73BE9F160
:10165000C83BF1F1C93BF9F1CA3B09F43FC080E056
:1016600090E03EC082EE90E03BC089EE90E038C052
:101670008AEE90E035C085EB90E032C086EB90E0DA
:101680002FC083EB90E02CC084EB90E029C087EB67
:1016900090E026C08CEC90E023C08DEC90E020C060
:1016A00083E891E01DC08AE891E01AC082E991E0E8
:1016B00017C084E991E014C081E292E011C083E296
:1016C00092E00EC084E292E00BC085E292E008C096
:1016D00086E292E005C087E292E002C08AE292E0F0
:1016E000CF910C946A09C03F30F08C2F0E949E1756
:1016F000CF910C948B18CF910895882309F464C07E
:10170000823879F40E94320981FF5EC069E38091DA
:101710000101909102010E94DC150E94961469E378
:1017200010C08338B1F40E94320980FF4DC063E5D8
:1017300080910101909102010E94DC150E94961493
:1017400063E580910101909102010E94E7150C94DC
:101750009614843879F40E94320982FF35C067E418
:1017600080910101909102010E94DC150E94961463
:1017700067E4E7CF9CEF980F913A10F4682FE1CF20
:1017800090E2980F983050F4877091E001C0990F63
:101790008A95EAF7892F0E94D214D9CF9BE5980F3A
:1017A000933020F480E090E00C94540998E5980F71
:1017B000953120F480E090E00C946A09803F20F09D
:1017C0000E9406180C948B180895882321F00E941B
:1017D000CC140C9496140895882321F00E94D214FE
:1017E0000C94961408958F929F92AF92BF92DF92BD
:1017F000EF92FF920F931F93CF93DF937C01D62F2D
:10180000C72FFC01058102950F70128111110E94F2
:10181000E9140E948F14882379F0112369F080E283
:101820008D0F883048F082E00E9478140E948F1457
:1018300091E0D82ED92601C0D12CBC2EB2948FE0D5
:10184000B8228B2D90E0FC01E859FF4F0C94A022A8
:101850008C2F807FCF70882311F0C295C07F112319
:1018600099F0CC2309F4C3C180E28D0F883010F0C9
:10187000D11104C08C2F0E94CC1403C08C2F0E9465
:10188000DC140E949614B3C18D2F0E947D0BCC23D3
:1018900009F4D2C180E28D0F883010F0D11104C05C
:1018A0008C2F0E94D21403C08C2F0E94E2140E943D
:1018B0009614C2C18C2F807FCF70803211F0C295F8
:1018C000C07FDD2319F0D130C9F022C0112371F09F
:1018D000002341F0013031F40E9402158C2B0E944C
:1018E000FC14AAC10E9402158C2B3AC1002319F0E6
:1018F000013009F4A1C10E94FF1418C0112321F086
:10190000063008F099C10EC0053008F095C10EC030
:10191000112351F0002331F0F701858180FF67C169
:101920008F7085838C2F1CC1011172C18C2F1EC139
:101930008C2F86958695837019F0813061F07CC17B
:10194000112321F08D2F9C2F937002C080E090E036
:101950000E9454097EC1112321F08D2F9C2F93707A
:1019600002C080E090E00E946A0973C11123F9F07F
:10197000D53F51F0D63F71F0D43FA9F480912B02AE
:1019800090912C0281600BC080912B0290912C02CF
:10199000826005C080912B0290912C02846090930C
:1019A0002C0280932B028D2F0E949E171EC0D53FC4
:1019B00051F0D63F71F0D43FA9F480912B02909161
:1019C0002C028E7F0BC080912B0290912C028D7F78
:1019D00005C080912B0290912C028B7F90932C025A
:1019E00080932B028D2F0E9406180E948B1831C104
:1019F0008C2F837009F04CC0111127C12D2F229517
:101A000026952770220F220F6D2F6F70862F90E082
:101A1000A0E0B0E04C015D01022E04C0880C991CCE
:101A2000AA1CBB1C0A94D2F7D4FF12C08FE090E02E
:101A3000A0E0B0E004C0880F991FAA1FBB1F2A9521
:101A4000D2F7BC01CD01609570958095909503C04B
:101A500060E070E0CB01C695C695C370C23051F00E
:101A600080F4682979298A299B29C13071F00E9464
:101A7000B712EBC0682979298A299B290E94C912CB
:101A8000E4C00E94B712C501B4010E94A512DDC0D6
:101A9000112319F08C2F817001C08695882309F4D9
:101AA000D4C02D2F229526952770220F220F6D2F3F
:101AB0006F70862F90E0A0E0B0E04C015D01022E37
:101AC00004C0880C991CAA1CBB1C0A94D2F7D4FF32
:101AD00012C08FE090E0A0E0B0E004C0880F991F32
:101AE000AA1FBB1F2A95D2F7BC01CD016095709546
:101AF0008095909503C060E070E0CB01C695C695D7
:101B0000C370C23051F080F4682979298A299B2951
:101B1000C13071F00E947C1398C0682979298A2904
:101B20009B290E948E1391C00E947C13C501B401B1
:101B30000E946A138AC08D2F90E0FC01E05EF109DB
:101B4000E531F10508F04FC0E858FF4F0C94A02292
:101B5000DF708C2F8F71112331F00E9403138D2FB2
:101B60000E94E50B69C00E9424138D2F0E94EC0B8C
:101B700063C0112341F0053008F05EC08C2F8F71D7
:101B80000E94491359C0063008F056C0F7CF112300
:101B900039F08C2F8F710E9403134EC01123C9F3AB
:101BA0008C2F8F710E94241347C0112329F08C2F92
:101BB0008F710E94EE1240C00E94E9123DC01123B5
:101BC00049F0CF718C2F0E94031363E08C2F0E9489
:101BD0006F1432C081E00E947814023068F182E014
:101BE0000E94781429C0112331F0002391F28D2F27
:101BF0000E94730A21C0002399F2D93349F4FFEF00
:101C000027EE83E0F15020408040E1F700C0000063
:101C10008D2F0E947D0B10C04C2F4F706D2FC70170
:101C20000E94CB060E94141214C04C2F4F706D2FCF
:101C3000C7010E94CE060DC098E0B91631F0B91662
:101C400040F086EF8B0D823020F40E9432090E9412
:101C50004B05DD20E1F00E946B1480FD18C0F701F8
:101C600012820E9465140E940313C7010E94530E42
:101C70000E946514DF91CF911F910F91FF90EF901B
:101C8000DF90BF90AF909F908F900C942413DF91C2
:101C9000CF911F910F91FF90EF90DF90BF90AF9089
:101CA0009F908F9008950F931F93CF93DF93EC0134
:101CB000988189812B813C81232B31F08F3F31F436
:101CC00081E09F3F19F403C081E001C080E080FD06
:101CD00013C0CE010E945D05882371F0688179816F
:101CE0008A810E9442148C010E94A0130E949112CA
:101CF000B801CE010E94F30BDF91CF911F910F919C
:101D000008950E94E9140E94F914809101019091B4
:101D100002010E94F2150E9496140E942D190E9441
:101D20008B1880E090E00E94540980E090E00C94D1
:101D30006A090E94D9140C94810E0E943714E92F6D
:101D4000E295EF704E2F50E0FA013297EE30F10538
:101D5000B0F4E357FF4F0C94A022803F91F018F4A9
:101D6000803E68F40EC0843F51F40BC0803E48F0C2
:101D7000813F29F406C093FB882780F9089580E00D
:101D8000089581E00895CF93DF9300D000D01F9293
:101D9000CDB7DEB70F900F900F900F900F90DF919F
:101DA000CF910895CF93DF9300D000D000D0CDB76E
:101DB000DEB726960FB6F894DEBF0FBECDBFDF911B
:101DC000CF9108951F93CF93DF93C091730116E0D5
:101DD00080917401C81799F0D0E01C9FF0011D9FFD
:101DE000F00D1124EB58FE4F4081518162817381C7
:101DF000848195810E94D20E2196C770E9CFDF9130
:101E0000CF911F9108954091A5015091A601609135
:101E1000A7017091A8018091A9019091AA010C9449
:101E2000D20ECF938091AA0182958F7009F05FC086
:101E30008091A701882309F45AC080917301B09161
:101E400074017091A501A091A6014091A801509143
:101E5000A90191E07F3F09F090E0692FC6E08B1760
:101E600009F445C04115510521F0AF3F21F020E0B4
:101E700003C021E001C0262F90E020FD35C0C89F9F
:101E8000F001C99FF00D1124EB58FE4F21812A1358
:101E90002BC02081271328C02281211125C0238136
:101EA00034812417350710F421503109241B350BD8
:101EB00024363105C8F42091AA012F7020612093A7
:101EC000AA0126E0289FF001299FF00D1124E65871
:101ED000FE4F80818F708061808385EA91E00E944F
:101EE000530ECF910C94E20E01968770B8CFCF912C
:101EF0000895AF92BF92CF92DF92EF92FF920F932D
:101F00001F93CF93DF93CDB7DEB761970FB6F894E9
:101F1000DEBF0FBECDBF8C0185E0F801DE011D964E
:101F200001900D928A95E1F7D8014C9111965C9140
:101F300011971296EC903091A5016091A6018091C5
:101F4000A8019091A901009731F06F3F31F421E091
:101F50003F3F19F403C021E001C020E0B22FB1706F
:101F6000BB2E20FD60C1F801C380D480A090A701E2
:101F7000AA2009F4EEC02091AA01C816D90628F0BB
:101F8000D601A81BB90BCD0104C0809590958C0D8E
:101F90009D1DFF24F3948436910580F0F12C207F61
:101FA00009F09CC07C2DD98AC88A6E2D89890E942F
:101FB000C30E85EA91E00E94530E2DC1822F807FCF
:101FC00009F054C0561314C0431312C0FE2CE11084
:101FD0000FC02F7020612093AA010E94030F85EA91
:101FE00091E00E94530E8091AA01F80185835CC1A3
:101FF000CD2831F05F3F31F481E04F3F19F403C049
:1020000081E001C080E080FD03C081E08E2502C038
:1020100080E090E0F82FF170FF2E80FF1CC08091CF
:1020200073012091740136E0821709F41AC190E01F
:10203000389FF001399FF00D1124EB58FE4F61815C
:10204000561306C06081461303C06281E61203C0C6
:1020500001968770E9CFFE2CEE2009F425C180910E
:10206000AA0181608093AA01F12C1EC1561309C0F8
:10207000431307C0E11005C08091AA01F8018583D0
:10208000A4C04D875E878D859E850E949D0E882306
:1020900079F1EE2069F12091AA01822F82958F704B
:1020A00090E0029774F08091A5019091A601988725
:1020B0008F831986DB86CA862C87CE0107960E94FD
:1020C000530E86E0F801A5EAB1E001900D928A95E1
:1020D000E1F70E94110F0E94030F0DC0561771F017
:1020E0004D875E878D859E850E949D0E81111AC049
:1020F000C8010E94530EFF24F394D6C04313F0CFBF
:10210000E110EECF8091AA01F8018583C8010E94F9
:10211000530E86E0E5EAF1E0DF011D928A95E9F7CA
:10212000FA2CC2C0EE2021F32091AA01822F8295C1
:102130008F7090E002972CF28091A5019091A601FA
:102140009A8389831B82DD82CC822E83CE01019605
:10215000B6CFC816D90628F0F601E81BF90BCF0157
:1021600004C0809590958C0D9D1D8436910548F096
:10217000F12C7C2DD98AC88A6E2D89890E94C30EC4
:102180004AC0FE2CEE2009F4B3CF561333C04313DC
:1021900031C02091AA0120FD24C0822F82958F702A
:1021A000482F50E041155105E1F0D80115962C93C8
:1021B00015974F30510549F08F5F982F9295907F7A
:1021C000822F8F70892B15968C93C8010E94530E15
:1021D00086E0F801A5EAB1E001900D928A95E1F759
:1021E0003DC086E0F801A5EAB1E001900D928A9524
:1021F000E1F75AC04D875E878D859E850E949D0EB2
:1022000081115FCF8091AA0181608093AA01C801EA
:102210000E94530E49C0E5EAF1E086E0DF011D921D
:102220008A95E9F71BC0EE2009F462CF4D875E87DF
:102230008D859E850E949D0EF82E882309F458CF27
:1022400086E0F801A5EAB1E001900D928A95E1F7E8
:1022500085EA91E00E946D0A0E94110F0E94030F0F
:1022600023C04D875E878D859E850E943714292F58
:1022700022952F70223028F49F7039F0811105C00B
:102280000BC0243028F49F7049F4805E883020F021
:10229000C8010E94530EBF2CFB2C06C0D801159616
:1022A0009C91907F91F7F8CF8F2D61960FB6F8949F
:1022B000DEBF0FBECDBFDF91CF911F910F91FF9079
:1022C000EF90DF90CF90BF90AF9008951F93CF9382
:1022D000DF93CDB7DEB72C970FB6F894DEBF0FBEF5
:1022E000CDBF4F83588769877A878B879C87CE01BC
:1022F00007960E94790F8823D1F09F8188852A85CF
:102300003B85232B31F08F3F31F481E09F3F19F45F
:1023100003C081E001C080E080FD47C04F81588547
:1023200069857A858B859C850E94D20E3EC086E0A9
:10233000FE013796DE01119601900D928A95E1F724
:10234000FF81E8856A857B856115710531F0EF3F76
:1023500031F481E0FF3F19F403C081E001C080E067
:1023600080FD23C02091740130E0C901019687707F
:1023700099274091730150E084179507F1F1F98393
:10238000EA837D836C8396E0929FD001939FB00D8A
:102390001124AB58BE4FFE01319601900D929A95D3
:1023A000E1F7809374010E94E20E16E080917301C0
:1023B00090917401891771F1189FC00111248B58F5
:1023C0009E4F0E94790F882329F1E09173011E9F8F
:1023D000F0011124EB58FE4F4081518162817381DD
:1023E000848195810E94D20E8091730190E00196C4
:1023F0008770992780937301D9CF0E94990E10920C
:10240000740110927301E5EAF1E086E0DF011D92AC
:102410008A95E9F72C960FB6F894DEBF0FBECDBFB4
:10242000DF91CF911F910895EF92FF920F931F9329
:10243000CF93DF938C01892B09F46CC0F12CEE242F
:10244000E394E8012196F8018491843740F48430C4
:1024500008F051C0813081F0823019F15BC08537BE
:1024600009F444C0A8F19CE7980F903708F052C0D7
:102470008F770E947D0B41C00E5F1F4FFE0184913C
:1024800090E2980F983050F48770FE2D01C0FF0F36
:102490008A95EAF78F2F0E94EC1414C00E94730AE9
:1024A0002DC00E5F1F4FFE01849190E2980F98306F
:1024B00060F48770FE2D01C0FF0F8A95EAF78F2F19
:1024C0000E94F2140E94961419C00E947D0B16C03F
:1024D0000E5F1F4FFE01C491CC2381F08FE99FE076
:1024E0000197F1F700C00000C150F6CF0E5F1F4FFB
:1024F000FE01F49003C00E94730A8E018F2D882381
:1025000009F49FCFEFE9FFE03197F1F700C0000039
:102510008150F5CFDF91CF911F910F91FF90EF90F8
:102520000895089508950C9492120C9493120E94A9
:1025300095126093D2017093D3018093D40190934C
:10254000D5010C94810E0C9497120F931F93009158
:10255000D2011091D3012091D4013091D501602B8B
:10256000712B822B932B1F910F910C9497120F9329
:102570001F930091D2011091D3012091D401309189
:10258000D50160237123822393231F910F910C9413
:1025900097120F931F930091D2011091D3012091B4
:1025A000D4013091D50160277127822793271F918D
:1025B0000F910C9497120C9492120E94DB1260936C
:1025C000CE017093CF018093D0019093D1010C94F0
:1025D000810E60E070E0CB010C94DD120F931F932D
:1025E00041E050E060E070E08A019B0104C0000F10
:1025F000111F221F331F8A95D2F7C901B8011F91FD
:102600000F910C94DD120F931F9341E050E060E0B6
:1026100070E004C0440F551F661F771F8A95D2F7DC
:102620008091CE019091CF01A091D001B091D101C4
:102630008A019B01082B192B2A2B3B2BC901B801BE
:102640001F910F910C94DD120F931F9341E050E006
:1026500060E070E004C0440F551F661F771F8A9525
:10266000D2F740955095609570958091CE019091EC
:10267000CF01A091D001B091D1018A019B01082323
:1026800019232A233B23C901B8011F910F910C94F0
:10269000DD120F931F9341E050E060E070E004C052
:1026A000440F551F661F771F8A95D2F78091CE0180
:1026B0009091CF01A091D001B091D1018A019B01ED
:1026C000082719272A273B27C901B8011F910F9115
:1026D0000C94DD120F931F930091CE011091CF0146
:1026E0002091D0013091D101602B712B822B932B43
:1026F0001F910F910C94DD120F931F930091CE0147
:102700001091CF012091D0013091D101602371232C
:10271000822393231F910F910C94DD120F931F932B
:102720000091CE011091CF012091D0013091D101C3
:1027300060277127822793271F910F910C94DD1238
:10274000089527E0929F800D1124E82FE695E695E5
:10275000E695877051E001C0550F8A95EAF785E04C
:10276000E89FF0011124E555FE4F20E030E070E0D5
:102770004081CB01022E02C0969587950A94E2F71C
:102780008170819584278523842781932F5F3F4F14
:102790002530310569F7089527E0929F800D1124B7
:1027A000682F669566956695982F977085E0689F67
:1027B000B001112440E050E080E0FB01E40FF51F80
:1027C000E555FE4F208130E0092E02C03695279551
:1027D0000A94E2F721703327042E01C0220F0A94D5
:1027E000EAF7822B4F5F5F4F4530510531F708956F
:1027F000CF92DF92EF92FF920F931F93CF93DF93CD
:102800008C01C090CE01D090CF01E090D001F0902B
:10281000D1018091D2019091D301A091D401B091C6
:10282000D501C82AD92AEA2AFB2ACFE1D0E0D7016C
:10283000C6010C2E04C0B695A795979587950A9466
:10284000D2F780FD04C0219790F780E007C0B8015F
:102850008C2F0E94EA060197B1F38C2FDF91CF9164
:102860001F910F91FF90EF90DF90CF900895CF933D
:10287000DF93EC010E94F813BE010E94EA06DF918B
:10288000CF9108951F93CF93DF93EB019091720145
:10289000992321F0CB010E94371413C0882349F0FB
:1028A000CB010E94F813182F682FCE010E94A113AC
:1028B00004C0CB010E94CC13182FBE01812F0E94AF
:1028C000EA06DF91CF911F9108958091D6018595F9
:1028D0008595859508958091D6018770089598E033
:1028E000899F90011124262B2093D6010C94031369
:1028F0002091D601809582238093D601982F9770DE
:1029000069F430E0482F082E000C550B24173507CA
:1029100029F08595859585950C94241308959091BB
:10292000D601977081E009F480E00895E0910101FB
:10293000F09102018091FA018083E0910101F09110
:10294000020190818091F901892B8083E09101013E
:10295000F091020190818091F801892B8083809110
:10296000D701882381F0E0910101F091020190816B
:10297000892B808380910101909102010E947F1533
:1029800081111092D70180910101909102010C9464
:102990003E098091FA0108959091FA01892B809364
:1029A000FA01089580959091FA0189238093FA01A4
:1029B00008951092FA0108959091F901892B80935E
:1029C000F901089580959091F90189238093F90187
:1029D00008951092F90108959091F801892B809340
:1029E000F801089580959091F80189238093F8016A
:1029F00008951092F80108958093D70108951092D8
:102A0000D70108958091D701089580E090E00E9459
:102A1000C22221E08D3E9E4F09F020E0822F0895D2
:102A200080E090E00E94C22221E0019609F020E0BF
:102A3000822F089582E090E00C94BA2283E090E027
:102A40000C94BA2284E090E00C94BA22682F84E0BF
:102A500090E00C94C822AB01BC018FE090E00C9494
:102A6000DA22AB01BC0183E190E00C94DA2260E051
:102A700070E0CB010C94311560E070E0CB010E9456
:102A80002B150C9437156DEE7EEF80E090E00E94E0
:102A9000E62260E082E090E00E94C82260E083E0ED
:102AA00090E00E94C8221092D2011092D30110929D
:102AB000D4011092D50160E084E090E00E94C82229
:102AC00060E085E090E00E94C82260E086E090E04F
:102AD0000E94C8226FEF87E090E00E94C82240E089
:102AE00050E0BA0188E090E00E94DA2260E08DE0D8
:102AF00090E00E94C8220C943C150C944315FC01F4
:102B000031969C01205E3F4F80E0919191118F5F43
:102B1000E217F307D1F708959C01FC0132969FEF6D
:102B200080E04191461789F09F3F19F4411101C09F
:102B3000982F8F5F8E31A9F79F3F39F0F901E90F88
:102B4000F11D97FDFA956283089508959C01225E18
:102B50003F4FFC014281461301C012820196821749
:102B60009307B9F70895262F2695269526952F3198
:102B700069F0FC01E20FF11D677021E030E001C057
:102B8000220F6A95EAF78181282B21830895262F49
:102B90002695269526952F3171F0FC01E20FF11D47
:102BA000677021E030E001C0220F6A95EAF72095B6
:102BB000818128232183089520911301222329F064
:102BC0002091310227FD0C94B3150C948C152091A3
:102BD0001301222329F02091310227FD0C94C715FF
:102BE0000C94A615FC01319680961192E817F9070E
:102BF000E1F7089508950C94FA150C94FA15CF9303
:102C00000E94FD150E94B5030E94FB15C0E08C2FA9
:102C10000E94F603811104C0CF5FC830C1F701C024
:102C200081E0CF9108950C94FA150C9413160E942C
:102C3000151680913702843049F11092FC0120E48E
:102C400088E190E00FB6F894A895809360000FBEDD
:102C50002093600080E00E944B050E94151683B708
:102C6000817F846083BF83B7816083BF78948895B8
:102C700083B78E7F83BF0FB6F894A89580916000CC
:102C8000886180936000109260000FBE08950C94DC
:102C9000FA150E94990E0E9432090E944B050C946D
:102CA00047161F920F920FB60F9211248F939F9386
:102CB000AF93BF938091FC01811113C080912D02CD
:102CC00090912E02A0912F02B09130024196A11D49
:102CD000B11D80932D0290932E02A0932F02B093EA
:102CE0003002BF91AF919F918F910F900FBE0F90C7
:102CF0001F90189582E084BD93E095BD9AEF97BD33
:102D000080936E0008952FB7F89480912D029091D2
:102D10002E02A0912F02B09130022FBF0895CF92C2
:102D2000DF92EF92FF920F931F932FB7F894409189
:102D30002D0250912E0260912F02709130022FBF10
:102D40006A017B01EE24FF248C0120E030E0C016F4
:102D5000D106E206F30610F4415051099A01281BEE
:102D6000390BC9011F910F91FF90EF90DF90CF9029
:102D7000089578941F920F920FB60F9211248F939B
:102D80009F93AF93BF9380912D0290912E02A091BB
:102D90002F02B09130020196A11DB11D80932D022A
:102DA00090932E02A0932F02B0933002BF91AF9167
:102DB0009F918F910F900FBE0F901F90189581E0FB
:102DC0008093E00080E28093D8001092C9008FE1E8
:102DD0009EE40197F1F700C0000087E090EBDC0172
:102DE0008093400290934102A0934202B093430229
:102DF0009CE088E10FB6F894A895809360000FBE20
:102E000090936000FFCF0E940515811102C00E94BF
:102E10007D150E941A158093FB010E94221590E0F7
:102E200090933202809331020E941E15682F70E049
:102E300080E090E00C94A3128091FF0180FF0BC012
:102E40006091060185E0689FB00111247595679532
:102E5000759567952BC081FF09C06091060185E0DB
:102E6000689FB00111247595679520C082FF07C047
:102E70006091060185E0689FB001112417C0909110
:102E800000029923D1F060910501961788F72091EF
:102E9000060185E0289F90011124929FA001939F35
:102EA000500D112470E0CA010E948C226038710517
:102EB00040F46115710519F406C065E070E0862FD5
:102EC00008958FE7089581E008958091FF0180FFC4
:102ED00008C06091040170E07595679575956795D8
:102EE00021C081FF06C06091040170E0759567956F
:102EF00019C082FF04C06091040170E010C090917D
:102F00000002992399F0609103019617A0F7809130
:102F10000401899FC001112470E00E948C22603856
:102F2000710540F46115710519F406C061E070E0A7
:102F3000862F08958FE7089581E00895803F21F45A
:102F40000E941C17819504C0813F29F40E941C1720
:102F5000809303020895823F21F40E941C178195FB
:102F600004C0833F29F40E941C1780930202089535
:102F7000893F19F40E94651705C08A3F31F40E9409
:102F8000651781958093040208958B3F21F40E9478
:102F90006517819504C08C3F29F40E9465178093C2
:102FA00005020895843F21F480910102816017C0D9
:102FB000853F21F480910102826011C0863F21F497
:102FC0008091010284600BC0873F21F4809101024F
:102FD000886005C0883F31F4809101028061809350
:102FE000010208958D3F21F48091FF0181600BC0A3
:102FF0008E3F21F48091FF01826005C08F3F29F44C
:103000008091FF0184608093FF010895803F39F42F
:103010008091030287FF6CC01092030269C0813F58
:1030200029F4809103021816BCF362C09091020249
:10303000823F29F497FF5CC01092020259C0833F7F
:1030400019F41916CCF354C0893F41F4809104025D
:1030500018160CF04DC0109204024AC08A3F29F4A1
:103060008091040287FF44C0F6CF8B3F39F48091F2
:10307000050287FF3DC0109205023AC08C3F29F43B
:10308000809105021816BCF333C0843F21F480916F
:1030900001028E7F17C0853F21F4809101028D7F50
:1030A00011C0863F21F4809101028B7F0BC0873FC6
:1030B00021F480910102877F05C0883F31F480911F
:1030C00001028F7E8093010213C08D3F21F4809115
:1030D000FF018E7F0BC08E3F21F48091FF018D7F19
:1030E00005C08F3F29F48091FF018B7F8093FF0102
:1030F0008091020281110EC08091030281110AC0E9
:1031000080910402811106C080910502811102C0E4
:1031100010920002089581E092E00E9449090E9405
:1031200083169093FE018093FD0108951F93CF9322
:10313000DF938091FD019091FE010E948F16AC01FA
:1031400090910002992321F02091070130E006C000
:10315000209108018AE0289F90011124421753070B
:1031600008F477C080910202C0910302D09104025A
:1031700010910502811107C0C11167C0D11165C04E
:10318000111163C066C09F3F19F09F5F90930002CA
:10319000181624F40E941C178093020280910202E8
:1031A00087FF05C00E941C178195809302021C16A0
:1031B00024F40E941C17809303028091030287FF6E
:1031C00005C00E941C178195809303023091020272
:1031D0003323C1F0209103022223A1F045EB3403F5
:1031E000C0011124892F911101C081E08093020256
:1031F00035EB2303C0011124892F911101C081E017
:10320000809303021D1624F40E9465178093040224
:103210008091040287FF05C00E9465178195809305
:103220000402111624F40E94651780930502809110
:10323000050287FF05C00E946517819580930502EE
:10324000DF91CF911F910C948B189F3F09F09DCF78
:10325000AECFDF91CF911F910895E1E0F2E085E0DC
:10326000DF011D928A95E9F7109200021092FF018A
:103270000895833081F128F4813059F08230D1F003
:103280000895853009F449C0B8F1863009F456C074
:10329000089580910801262F30E0280F311D2F3F1F
:1032A000310524F4680F6093080108958FEF80932F
:1032B0000801089580910701262F30E0280F311D65
:1032C0002F3F310524F4680F6093070108958FEFB5
:1032D00080930701089580910601262F30E0280F82
:1032E000311D2F3F310524F4680F609306010895C6
:1032F0008FEF80930601089580910501262F30E01D
:10330000280F311D2F3F310524F4680F609305010C
:1033100008958FEF80930501089580910401262F71
:1033200030E0280F311D2F3F310524F4680F6093E2
:10333000040108958FEF80930401089580910301A3
:10334000262F30E0280F311D2F3F310524F4680F60
:103350006093030108958FEF8093030108958330F4
:1033600011F128F4813049F0823091F008958530D0
:1033700081F120F18630C1F108958091080168172C
:1033800020F4861B80930801089510920801089587
:1033900080910701681720F4861B80930701089528
:1033A00010920701089580910601681720F4861B8A
:1033B00080930601089510920601089580910501F9
:1033C000681720F4861B809305010895109205016B
:1033D000089580910401681720F4861B80930401EE
:1033E000089510920401089580910301681720F454
:1033F000861B8093030108951092030108950F9393
:103400001F9341E050E060E070E08A019B0104C03E
:10341000000F111F221F331F8A95D2F7C901B8016F
:103420000E94A3121F910F910C94990E873208F0FD
:103430004DC08E3108F08FC0803109F479C008F595
:10344000873009F467C068F4863009F08BC080913A
:10345000FB01817F8E7F8093FB0181E080930702D7
:1034600008958B3009F47AC08E3009F07BC08091CA
:10347000FB0182FB222720F991E0922790FB82F941
:1034800060C0863109F46AC088F4813109F06AC0ED
:103490000E94990E8091310287FB222720F991E04A
:1034A000922790FB87F98093310258C0893109F443
:1034B00055C08B3109F056C08091FB0181FB22275A
:1034C00020F991E0922790FB81F93BC0883309F401
:1034D00045C048F4893209F443C0853309F440C03B
:1034E0008732F1F13FC08334D9F120F48A33D0F12F
:1034F000895332C08834B1F50E94990E2FEF83EDC5
:1035000090E3215080409040E1F700C000000E940D
:10351000DF1624C08091FB01982F9095917090FB4D
:1035200080F98093FB01911119C0897F877F10C0BA
:103530008091FB0183FB222720F991E0922790FBE9
:1035400083F98093FB01992349F08091FB0181600D
:103550008093FB0103C08D510E94FF1981E0089503
:1035600080E0FACF80E0089580E008950C94B41ACA
:103570008E518A3030F4E82FF0E0ED5DFE4F80810F
:10358000089580E00895CF93C82F8091070281307D
:1035900069F018F08230C9F183C0E0910101F09127
:1035A00002018081823209F07DC007C0E0910101F3
:1035B000F09102018081823261F48C2F0E94B61A50
:1035C000811104C08C2F0E94161A1DC081E090E06A
:1035D0001AC08C2F0E94B41A811114C0C43179F022
:1035E00048F4CB3079F0C03109F060C082E08093BC
:1035F000070208C0C93219F0C83321F057C0109231
:10360000070254C081E0817053C0C93289F118F5B6
:10361000C43171F1B0F4C73009F046C08EE1809337
:10362000080182E3809307018AE08093060184E128
:103630008093050188E08093040188E28093030170
:1036400033C082EE8C0F863078F58C2F0E94B81A2A
:103650008093060229C0CE34E9F020F4CB3421F562
:103660006AE013C0C13579F0C235F1F461E00DC0F4
:1036700080910602882319F01092060215C081E09D
:103680008093070215C061E006C0809106020E9487
:1036900039190AC06AE0809106020E94AF1904C07D
:1036A0001092070280E004C081E002C080E0ABCF4E
:1036B000CF9108958091280208950F931F93CF937F
:1036C000DF9300D01F92CDB7DEB78C010E94D11DD1
:1036D000823011F0843019F583E089831B830A83DB
:1036E0008093E9008FEF9091E800815095FD06C02E
:1036F00095ED9A95F1F700008111F5CF8091E800E2
:1037000085FF0DC040E050E063E070E0CE0101961F
:103710000E94EE1D8091E8008E778093E8000F9064
:103720000F900F90DF91CF911F910F910895CF933C
:10373000DF9300D01F92CDB7DEB72091370224303F
:1037400031F522E02983805891099B838A8383E0A5
:103750008093E9008FEF9091E800815095FD06C0BD
:1037600095ED9A95F1F700008111F5CF8091E80071
:1037700085FF0DC040E050E063E070E0CE010196AF
:103780000E94EE1D8091E8008E778093E8000F90F4
:103790000F900F90DF91CF910895CF93DF93EC01BD
:1037A0000E94D11D823011F08430F9F482E08093C0
:1037B000E9008FEF9091E800815095FD06C095EDEE
:1037C0009A95F1F700008111F5CF8091E80085FF0F
:1037D0000CC040E050E065E070E0CE010E94EE1DBC
:1037E0008091E8008E778093E800DF91CF91089573
:1037F000CF93DF93EC010E94D11D823019F0843009
:1038000009F047C0809113018823E1F080913102D3
:1038100087FF18C084E08093E9008FEF9091E80063
:10382000815095FD06C095E19A95F1F70000811150
:10383000F5CF8091E80085FF2CC040E050E060E2C9
:1038400070E017C081E08093E9008FEF9091E8006D
:10385000815095FD06C095ED9A95F1F70000811114
:10386000F5CF8091E80085FF14C040E050E068E0AB
:1038700070E0CE010E94EE1D8091E8008E7780936B
:10388000E80080E2FE01A8E0B2E001900D928A9586
:10389000E1F7DF91CF91089580913602811109C03F
:1038A0000E947F1F0E94DC1F8091E2008460809351
:1038B000E2000895109236020895089508950C9438
:1038C000491642E061EC81E00E94F81E42E061ECA2
:1038D00082E00E94F81E42E061EC83E00E94F81E44
:1038E00042E261EC84E00C94F81E8091390283304E
:1038F00009F455C030F4813071F0823009F48EC083
:1039000008958A3009F47AC08B3009F460C0893098
:1039100009F09CC020C080913802813A09F096C01D
:103920008091E800877F8093E80080913C0290912D
:103930003D02892B21F460E288E092E003C060E060
:1039400080E090E070E00E94391E8091E8008B7763
:103950008093E800089580913802813209F076C0A2
:1039600080913C0290913D02009719F0039709F075
:103970006DC08091E800877F8093E8008091E80027
:1039800082FD05C0809137028111F8CF5FC0809120
:10399000F100809328028091E8008B7753C08091DA
:1039A0003802813A09F052C080913C0290913D0268
:1039B000892B09F04BC08091E800877F8093E80055
:1039C0008091E80080FFFCCF8091130136C0809188
:1039D00038028132D9F580913C0290913D02892BC9
:1039E000A9F58091E800877F8093E8000E942D1F51
:1039F00080913A02809313010C94990E80913802C1
:103A0000813221F58091E800877F8093E8000E9451
:103A10002D1F80913B0280932902089580913802E6
:103A2000813AA1F48091E800877F8093E80080913B
:103A3000E80080FFFCCF809129028093F100809103
:103A4000E8008E778093E8000C942D1F089584B7CA
:103A5000877F84BF0FB6F894A89580916000886135
:103A600080936000109260000FBE80E88093610038
:103A7000109261000E9480090E947F1F0E94DC1F3B
:103A80008091E20084608093E20078940E94712229
:103A90000E94840989E091E00E942D0980913702FB
:103AA000853069F40E941716809135028823B1F39E
:103AB0000E94FF15882391F30E94D81DEFCF0E942A
:103AC0009609ECCF0C94641D292F33272330310540
:103AD000C9F060F42130310581F02230310509F060
:103AE00047C08DE690E028EC32E046C02132310537
:103AF00011F12232310561F13BC082E190E025E312
:103B000033E03AC099278130910561F040F082306E
:103B1000910559F0039761F5EAE9F2E008C0E4EC99
:103B2000F2E005C0E0EBF2E002C0E0EAF2E08491EE
:103B300090E09F0121C064307105D0F4660F771FBB
:103B4000FB01E75CFE4F2081318189E090E014C0E9
:103B50006430710568F4FB01EE0FFF1FEF5CFE4F50
:103B600020813181FB01E35DFE4F808190E004C044
:103B700080E090E020E030E0FA0131832083089576
:103B80000895CF93C82F0E94C01DC0932A02CF91E1
:103B9000089580913702843011F081E0089582E029
:103BA000089580912A02811102C00C94C91D0895C4
:103BB00080E189BD82E189BD09B400FEFDCF80911D
:103BC000D8008F7D8093D8008091E0008260809340
:103BD000E0008091E00081FDFCCF0895CF92DF925C
:103BE000EF92FF920F931F93CF93DF93EC018B0122
:103BF0007A010E944C1F811133C0E114F10439F0A5
:103C0000F70180819181081B190BC80FD91FC12CA6
:103C1000D12C0115110519F18091E80085FD16C020
:103C20008091E8008E778093E800E114F10449F078
:103C3000F70180819181C80ED91ED182C08285E0B2
:103C40000FC00E944C1F882321F30AC089918093E2
:103C5000F10001501109FFEFCF1ADF0ADACF80E03F
:103C6000DF91CF911F910F91FF90EF90DF90CF9058
:103C7000089520913E0230913F022617370748F001
:103C80006115710539F42091E8002E772093E80042
:103C900001C0B901FC0120E06115710579F1809145
:103CA00037028823F1F18530F1F18091E80083FD3E
:103CB0003CC08091E80082FD2EC08091E80080FF2A
:103CC000EBCF2091F3008091F20090E0922B6115F0
:103CD000710551F08830910538F421912093F1005D
:103CE000615071090196F3CF21E0089709F020E0B7
:103CF0008091E8008E778093E800CECF2111CFCF5E
:103D00000AC080913702882361F0853061F080918C
:103D1000E80083FD0AC08091E80082FFF2CF80E0D6
:103D2000089582E0089583E0089581E00895209148
:103D30003E0230913F022617370748F061157105A2
:103D400039F42091E8002E772093E80001C0B901F2
:103D5000FC0120E06115710591F180913702882303
:103D600009F440C0853009F43FC08091E80083FD2C
:103D70003DC08091E80082FD2FC08091E80080FF67
:103D8000E9CF2091F3008091F20090E0922B611531
:103D9000710559F08830910540F424912093F10089
:103DA0003196615071090196F2CF21E0089709F030
:103DB00020E08091E8008E778093E800CBCF21113E
:103DC000CCCF0AC080913702882361F0853061F042
:103DD0008091E80083FD0AC08091E80082FFF2CF65
:103DE00080E0089582E0089583E0089581E00895D9
:103DF000982F973068F59093E900981739F07091F3
:103E0000EC002091ED005091F00003C0242F762F9C
:103E100050E021FD02C09F5FECCF3091EB003E7F70
:103E20003093EB003091ED003D7F3093ED00309109
:103E3000EB0031603093EB007093EC002093ED00C9
:103E40005093F0002091EE0027FDE5CF80E008952B
:103E50008F708093E90081E008958091380287FF98
:103E600011C08091E80082FD05C080913702811168
:103E7000F8CF11C08091E8008B770BC0809137029A
:103E8000882349F08091E80080FFF8CF8091E80016
:103E90008E778093E80008952091E4003091E5004A
:103EA00095E64091EC00842F817040FF23C0809103
:103EB000E80080FD1DC080913702882399F085308D
:103EC00099F08091EB0085FD11C04091E400509184
:103ED000E5002417350729F3915011F09A01E1CF3D
:103EE00084E0089582E0089583E0089581E00895D4
:103EF00080E008954091E80042FFDDCF08950E94E0
:103F0000ED1F0E94F51FE0EEF0E08081816080836C
:103F1000E8EDF0E080818F77808319BCA7EDB0E0F9
:103F20008C918E7F8C9380818F7E8083109236025D
:103F300008950F931F93CF93DF930E94ED1F0E946C
:103F4000F51FC8EDD0E088818F77888388818068ED
:103F5000888388818F7D888319BC109237021092E4
:103F60003302109235021092340200EE10E0F80194
:103F700080818B7F808388818160888342E060E0DC
:103F800080E00E94F81EE1EEF0E080818E7F808369
:103F9000E2EEF0E0808181608083808188608083B0
:103FA000F80180818E7F8083888180618883DF91A2
:103FB000CF911F910F910895E8EDF0E080818F7E01
:103FC0008083E7EDF0E080818160808384E082BFC0
:103FD00081E0809336020C94991FE8EDF0E0808137
:103FE0008E7F80831092E20008951092DA00109282
:103FF000E10008951F920F920FB60F9211242F9394
:104000003F934F935F936F937F938F939F93AF9360
:10401000BF93EF93FF938091E10082FF0BC08091EB
:10402000E20082FF07C08091E1008B7F8093E10076
:104030000E9470228091DA0080FF1FC08091D8001A
:1040400080FF1BC08091DA008E7F8093DA00809120
:10405000D90080FF0DC080E189BD82E189BD09B42E
:1040600000FEFDCF81E0809337020E944C1C05C00A
:1040700019BC109237020E945A1C8091E10080FF07
:1040800019C08091E20080FF15C08091E2008E7F10
:104090008093E2008091E20080618093E200809151
:1040A000D80080628093D80019BC85E080933702E5
:1040B0000E945E1C8091E10084FF30C08091E2008C
:1040C00084FF2CC080E189BD82E189BD09B400FE76
:1040D000FDCF8091D8008F7D8093D8008091E10042
:1040E0008F7E8093E1008091E2008F7E8093E200DA
:1040F0008091E20081608093E20080913302882306
:1041000011F084E007C08091E30087FD02C081E0E8
:1041100001C083E0809337020E945F1C8091E10020
:1041200083FF29C08091E20083FF25C08091E100D8
:10413000877F8093E10082E0809337021092330200
:104140008091E1008E7F8093E1008091E2008E7F7C
:104150008093E2008091E20080618093E20042E07F
:1041600060E080E00E94F81E8091F00088608093FB
:10417000F0000E945D1CFF91EF91BF91AF919F9164
:104180008F917F916F915F914F913F912F910F9000
:104190000FBE0F901F9018951F920F920FB60F929F
:1041A00011242F933F934F935F936F937F938F933C
:1041B0009F93AF93BF93CF93DF93EF93FF93C09100
:1041C000E900CF708091EC00D82FD17080FDD0E84D
:1041D0001092E9008091F000877F8093F00078943E
:1041E0000E9410211092E9008091F0008860809375
:1041F000F000CD2BCF70C093E900FF91EF91DF91DC
:10420000CF91BF91AF919F918F917F916F915F916E
:104210004F913F912F910F900FBE0F901F901895C7
:104220001F93CF93DF93CDB7DEB7AA970FB6F8945D
:10423000DEBF0FBECDBFE8E3F2E08091F1008193D5
:1042400022E0E034F207C9F70E94751C8091E80073
:1042500083FF2EC18091380290913902492F50E09E
:104260004A30510508F024C1FA01E556FF4F0C947D
:10427000A022803821F0823809F01AC108C080914C
:10428000340290913502992389F082600FC08091A9
:104290003C028F70873008F00BC18093E900809159
:1042A000EB0085FB882780F91092E9009091E800E7
:1042B000977F9093E8008093F1001092F100D1C0B5
:1042C000282F2D7F09F0F4C0882319F0823061F087
:1042D000EFC080913A02813009F0EAC0933009F0D2
:1042E00080E0809335022EC080913A0281112AC06D
:1042F00080913C028F702FEF280F263008F0D8C035
:104300008093E9002091EB0020FF1CC0933021F442
:104310008091EB00806214C09091EB0090619093CB
:10432000EB0021E030E0A90102C0440F551F8A953F
:10433000E2F74093EA001092EA008091EB00886077
:104340008093EB001092E9008091E800877F8093D2
:10435000E8000E942D1FACC08111AAC010913A0242
:104360001F778091E3008078812B8093E300809118
:10437000E800877F8093E8000E942D1F8091E8006D
:1043800080FFFCCF8091E30080688093E3001111EF
:1043900002C082E001C083E08093370289C0805868
:1043A000823008F085C080913A0290913B028C3DAA
:1043B00053E0950779F583E08A838AE289834FB7D2
:1043C000F894DE01139620E03EE051E2E32FF0E0A6
:1043D00050935700E49120FF03C0E295EF703F5FD8
:1043E000EF708E2F90E0EA3010F0C79601C0C096B3
:1043F0008D939D932F5F243149F74FBF8091E80043
:10440000877F8093E8006AE270E0CE0101960E9407
:10441000391E16C060913C0270913D02AE014F5FA3
:104420005F4F0E94621DBC01892B09F441C090912D
:10443000E800977F9093E80089819A810E94971EF7
:104440008091E8008B778093E80032C0803881F556
:104450008091E800877F8093E80080913302809309
:10446000F1008091E8008E7772CF811121C0809198
:104470003A0290913B0299270297D4F48091E80088
:10448000877F8093E80080913A02809333020E94F4
:104490002D1F80913302811106C08091E30087FDBA
:1044A00002C081E001C084E0809337020E94611C59
:1044B0008091E80083FF0AC08091E800877F8093A5
:1044C000E8008091EB0080628093EB00AA960FB623
:1044D000F894DEBF0FBECDBFDF91CF911F9108953D
:1044E0000895CF93809137028823A1F0C091E9000D
:1044F000CF709091EC00892F817090FD80E8C82BDF
:104500001092E9008091E80083FD0E941021CF7095
:10451000C093E900CF91089597FB072E16F40094FD
:1045200007D077FD09D00E94A62207FC05D03EF4F3
:10453000909581959F4F0895709561957F4F08954F
:10454000EE0FFF1F0590F491E02D0994AA1BBB1BF1
:1045500051E107C0AA1FBB1FA617B70710F0A61B83
:10456000B70B881F991F5A95A9F780959095BC01A4
:10457000CD010895F999FECF92BD81BDF89A992792
:1045800080B50895A8E1B0E042E050E00C94EE223E
:10459000262FF999FECF92BD81BDF89A019700B4FC
:1045A000021639F01FBA20BD0FB6F894FA9AF99A9C
:1045B0000FBE08950396272F0E94C9220E94C82289
:1045C000252F0E94C922242F0C94C9220196272F3F
:1045D0000E94C9220C94C822DC01CB01FC01F9998C
:1045E000FECF06C0F2BDE1BDF89A319600B40D923F
:0C45F00041505040B8F70895F894FFCFF8
:1045FC0001D8012808140A321E5A1BF81BCD1B9730
:10460C001B5D1B01F5F6F73133323697C634350096
:10461C0000000001020304050607080900404D369E
:10462C00390304B60380034703DA02F3020C0325B3
:02463C00030079
:00000001FF
